:020000040800F2
:1000000000100020B55600080557000805570008E5
:1000100000000000000000000000000000000000E0
:10002000000000000000000000000000055700086C
:1000300000000000000000000557000863420008AF
:100040000557000805570008055700080557000820
:1000500005570008F9420008094300081943000841
:1000600000000000055700080557000800000000C8
:1000700005570008713F0008893F00080000000094
:10008000913F00080557000800000000A93F000844
:1000900000000000C13F0008D93F000805570008D4
:1000A000000000000557000805570008214C000813
:1000B000394C00080000000005570008000000004F
:1000C00005B508461A460ABDC20D4002400A012481
:1000D000E4052043FF2AD2B200D94042013AFE2A69
:1000E00001D27E3A70470028204600D540427E3A31
:1000F000920080327047C40FE40704D5002D00D071
:100100000130404203D4013A001812D0FBD58132AD
:1001100001D1803005D2803003D2002D0FD04000B5
:10012000013AFE2A06DA013207DD400AD205104301
:1001300020437047FF20C005FAE7002070470506FE
:10014000EDD1400A8002EBE783B20C146343041440
:100150008DB26C431B1984B26C432504240C1B190B
:10016000001409144843C002D9060D435911401820
:1001700070474200120E01D0FF2A01D1C00DC00508
:100180004A00120E01D0FF2A01D1C90DC905012272
:10019000414009D4414000D55242884202DC00DB94
:1001A00000225242101E704701434918F8D000281F
:1001B000F8DAF6E7002110B5FFF786FF1300823367
:1001C00010D40A44173A07DB072A19DDC117C943BF
:1001D0000120C007484010BD5242202A00DB2022E7
:1001E000104110BD002010BD002110B5FFF76CFFBD
:1001F0000A440100EED4173AEEDBC143082AE9DCD9
:10020000904010BD002230B5002906D5CD0705432A
:100210004808013A10E0002230B505000D4315D022
:10022000CD170C16AC4205D1C901440E2143C001C3
:100230000732F6E70500080052423D3204E0002193
:1002400030B51D22521A0025FFF755FF30BD0021A1
:1002500030B50028F5DA1E22521AC5074008F3E728
:100260000025A4460DE0002902DC05E0002A03DA9F
:10027000891B7F42121901E08919121B64466743EA
:10028000C01B10CB640800D2013506462E410F4634
:100290002F4164087047C0B5FFF7E2FFFFF7E6FFA4
:1002A000FCD386138F13D2105643574364466743DB
:1002B00036133F13C01B8919C0BDC0B5FFF7D0FF6F
:1002C000FFF7D1FFFCD3002902DC8919121B01E0E2
:1002D000891B121976106410F5D1EDE7114A5140CF
:1002E00070B5C4174200120E55D0FF2A56D0CD1754
:1002F0004B001B0E55D0FF2B56D00B4E30403140DB
:1003000001363043314360406940001B491B9D1A50
:10031000D41A11D41E2C0CDA203513000A00AA407E
:1003200021410FE000000080FFFF7F000022080055
:100330000AE01300002207E01E2DF7DA2034020045
:10034000A2402841401819D0C10F03D0C0435242E7
:1003500000D10130B619B04204D292184041013B9D
:10036000B042FAD3400802D30130002A09D0FE2B54
:100370000AD2C9070844DB05184470BD002AFCD026
:10038000E2E740084000F2E701DAC80770BD080262
:10039000FF30C00570BD203A1219A8E712022244AE
:1003A000A5E7203B5B19A8E71B022B44A5E7C04645
:1003B00080B502464A40D20FD20796464000490017
:1003C000020E3DD0FF2A3CD00B0E3CD0FF2B3BD081
:1003D000D718803F00020902400A490A4218944691
:1003E000C209CB095A434843920C02D3002800D4D7
:1003F00001324302C00D520280186044C10D0ED17B
:10040000FE2F2BD25B0001D305D001300137FF0551
:100410003844704480BD013040084000F6E70137A1
:10042000FE2F13D2400802D30130002B05D0FF1954
:100430000137BF053844704480BD40084000F6E7EE
:10044000103A1202C0E7103B1B02C1E712DA013773
:100450000ED10230C00D03280AD105E00ADA0137B7
:1004600006D10130C00D03D00120C005704480BD0D
:10047000704680BDFF20C005704480BD70B501246A
:10048000E4054A02520A2243930C25A5EB5C550170
:100490005D43AD13EE127643AD1B5D431E026D133B
:1004A00001356D10751BC60DF3B24002400A2043A2
:1004B000C90D4E40360AF607C9B2002930D0FF29CF
:1004C0002CD0002B39D0FF2B2AD05B1A7D33010AA8
:1004D0006943090CC00314004C43041BA4126C4371
:1004E0002414490309190C0F08D105310C090FD345
:1004F000C90880025143401A0AD408E00133093187
:100500004C0905D3090940025143401A00D4013473
:10051000FE2B09D2D9056018801970BDFF2B0CD1B4
:10052000FF20C005304370BDFADA591C05D1610EB9
:1005300003D30120C005304370BD300070BDC046FC
:10054000FCF5EDE7E0DAD5CFCAC5C1BCB8B4B0ACB4
:10055000A9A5A29F9C999694918E8C8A8785838168
:1005600010B441003AD20902490A0122D205891881
:10057000C20D3AD0FF2A36D07D32521000D3490046
:100580001AA44B0DE45CC809604360430013604348
:1005900040132402241AAA3420004043C00B0B0A43
:1005A0005843001360434015241A6343DB0B1800C3
:1005B00040434902081A40114443DB01E013103064
:1005C0008011034406D31C46644164430904091B9B
:1005D00000D40133D205D01810BC7047090E04D0E6
:1005E000C017C005F8E7C00DFBE7C00FC007F3E771
:1005F000F1DAC9BBB0A69E97918B8682F0B5012433
:10060000E407634001E0C046F0B50C0DCF0F661E55
:100610003605891B640503D3C943404200D3013129
:10062000640D03D0661CF60A07D0E41B00207F008F
:10063000791C89078912803C24031D0DDF0F6E1E73
:1006400036059B1B6D0503D3DB43524200D30133B8
:100650006D0D03D06E1CF60A07D0ED1B00227F0043
:100660007B1C9B079B12803D2D032F1B661B58D4C0
:10067000A446202E46DA20371400BC401D00BD40A1
:10068000F24033412A4380185941CB0F05D0C9436A
:10069000C043002264425041514162464D0D28D171
:1006A0000D0D07D100281FD0241940414941013ABE
:1006B0000D0DF9D0640006D3013000D30131002CB8
:1006C00001D140084000013A0BD4941CE40A04D143
:1006D00012051144DB071944F0BDD907204B19431B
:1006E00000E0D9070020F0BD0029DDD1002CDBD1CE
:1006F000F0BD0132C6074008CD0728434908002E47
:10070000E1D0D9E73C2E29DA203E40371400BC4026
:1007100000D00124F24014431A00BB401C43D317FD
:10072000ACE7AC46202F08DA20360400B4400D00B8
:10073000B540F84039412843A5E73C2F0CDA203F6B
:1007400040360400B44000D00124F84004430800BF
:10075000B1400C43C117EAE710001900002494E7E8
:100760000000F07FF0B50C0D661E3605891BE60A09
:100770006405640D02D0651CED0A04D0002001213F
:100780000905803C2403A4461C0D671E3F05DB1BA6
:10079000E70A6405640D02D0651CED0A04D000224E
:1007A00001231B05803C24037740644497B484B242
:1007B00096B27443070C7E43150C6F4380B26843B6
:1007C000361802D3012000043F183004350C0019FC
:1007D0007D41844688B29AB250430C0C62431F0C90
:1007E0007C438EB27E43921902D301263604A419AB
:1007F0001604170C3618674101BC81B29AB25143F6
:10080000040C62431B0C5C4380B25843121802D3A1
:100810000120000424181004130C401863412D1803
:100820005E410020474106BC88B293B258430C0C8D
:100830006343120C544389B251435B1802D3012124
:100840000904641819041A0C091862416D185641FC
:100850000020474118BCF902720D1143F0026A0DE5
:100860001043ED020A0D03D16D1940414941013B8E
:10087000124E9B1B7600B3420ED26D0007D301309F
:10088000002671416646354301D1400840001B05F2
:10089000C918E4072144F0BD0BDA013306D1013059
:1008A00004D101314F0D01D04908F2E7E1070020E2
:1008B000F0BD013631050020EBE70000FF0300002A
:1008C000F0B51C0D671E3F05DB1BE70A6405640DD0
:1008D00002D0661CF60A04D0002201231B05803CCE
:1008E0002403CE0FF619B44649004F0D02D07E1CEA
:1008F000F60A03D000200021403F3F033E1BB60014
:10090000B444013F7F05C91B4908DC0BA94D2C5D90
:100910001D026543AD13EE127643AD1B6543E60140
:10092000AD1301356D10761B9C02950D2543754363
:10093000ED137543AD1301356D10F603761B0CB442
:10094000CC02450D2C43A2B2B3B25A43270C7B43D1
:10095000350C6F43A4B26C431B1902D30124240449
:100960003F191C041D0CA4187D4124196D41009AE7
:1009700091B2ACB26143170C7C432B0C5F4392B233
:100980005A43A41802D301221204BF182204230CD4
:1009900052187B41019C6C431B19520ED9010A432A
:1009A0004401A01A81B2B2B2514303145A43360C27
:1009B000734387B27743D617D21900277E41360496
:1009C0009B191704160C7F185E417316ED18F3017E
:1009D000002680337541A90F06D16400690AE80535
:1009E0005B0A184309D22FE00422944480337541F6
:1009F000A90AA8059B0A184326D34041494124046B
:100A0000009A019B0D005543641B4343E41A95B2C1
:100A100086B27543170C7E43030C5F4392B25A4370
:100A2000B61802D301221204BF183204330C521933
:100A30007B4152429C41002C02D4002201305141A2
:100A40004008CA071043490802B06246D70792100F
:100A5000594BD218594B9A4203D212058918C91919
:100A6000F0BD0020002A01DC3900F0BD013319057A
:100A7000F5E707DA002107E0C90FC907520D03D0D7
:100A8000C91201E04E490905002070474A00F3D21F
:100A9000520D013A494B9A42EBD2F0B51405091BAD
:100AA000520801D3001849419B08D21812059446F8
:100AB00042A44A0CA25C0B09534353431B135343F8
:100AC0005B131202D21A13005B435B0B4C086343A7
:100AD000DB135343DB1501335B10D21A130CD21A0C
:100AE00013005B438902840D21438DB29EB275438E
:100AF0000F0C7E431B0C5F438CB25C43361902D350
:100B0000012424043F193404330C64197B419D01F2
:100B1000A40E2C432034A5B25543241454432D0C69
:100B20006419A411D203121B95B28EB27543170C2F
:100B30007E430C0C674393B26343F61802D3012340
:100B40001B04FF183304340C5B197C41DB1864412F
:100B5000DB18002363419EB276439DB21F0C7D4398
:100B60007F436C04ED0BA4197D4106028F08361BF0
:100B7000AF417D07F6086E41B4B295B26C433714AD
:100B80007D43120C5743B6B25643EA17AD190026FF
:100B900072411204BF182E042A0C36197A41083209
:100BA00052111BD29D0A9C05D1171019694161444D
:100BB000F0BD000020050008FD030000FE07000056
:100BC000FF070000F8EBDFD6CDC5BEB8B2ADA8A4D4
:100BD000A09C9995928F8D8A8885838152415D0A68
:100BE000DC05D11714194D412B006343A6B276439F
:100BF000A2B2270C7A437F435104D20B89197A4160
:100C0000D218D21880054942904102D40023013401
:100C10005D4160086908ED0728436144F0BDD0B527
:100C2000B34F4C00640D01D0BC4202D10020090D2D
:100C300009055C00640D01D0BC4202D100221B0DED
:100C40001B0501264B400CD44B4000D576429942FF
:100C500003D1904203D801D3002600DC7642301E37
:100C6000D0BD0B43DB1803431343F5D00029F6DA5C
:100C7000F4E744464D4656465F46F0B47047F0BC34
:100C8000A046A946B246BB467047624618CA94467B
:100C90005A46002A20DB04E0624618CA944600291E
:100CA0001ADAC01861415B463B415C46B44052468B
:100CB000FA40224344464D4662416B419046994674
:100CC0002B46B3403D41FC401C4352465B46A2418B
:100CD000AB4192469B467047C01AA1414B463B41EF
:100CE0004C46B4404246FA40224354465D46624177
:100CF0006B4192469B462B46B3403D41FC401C4312
:100D000042464B46A241AB4190469946704700206F
:100D100000217047002200B5203200F02AF80800B8
:100D200000BD002200B5203200F030F8080000BD00
:100D3000002100B500F004F81EE00021C315E6D440
:100D400010B58C46C3174000020E0AD0FF2A0CD003
:100D5000511E7F3A0906401A5840C01A0111000777
:100D60001FE000200100030010BDD843D94310BD8F
:100D7000002200B500F00CF8CA179A4200D100BD5D
:100D8000D8430121C907414000BD00220B15BED444
:100D900010B5944600F0B8F81414013400DA0021BC
:100DA000CB176244343A0CD40C2A07DA0400914081
:100DB000904052422032D440214310BDD843D94301
:100DC00010BD203207D40C469440524220321141CB
:100DD000D040204310BD0800C917203203D452422E
:100DE0002032104110BD1800190010BDC30FDB07E1
:100DF00041000A0E07D0FF2A08D009093D4A891888
:100E00001943400770471900002070473A49C91834
:100E1000FAE74A00520D394BD21A13DDFF2A1EDAC7
:100E2000D205CB0FDB071A43C300400F0903490A61
:100E3000084310435B0001D301D0013070474308E1
:100E4000FBD2704702D0C80FC00770470A031213C5
:100E50000132F8D1420F072AF5D1012200E0FF222A
:100E6000C80F00028018C005704700210A00002149
:100E700004E000210A00C11703E00022002305E07E
:100E80000022CB1758405940C01A994130B51C4C2C
:100E9000A21A002903D1010010D00020203A4C15DD
:100EA00012D104D2013A001849414C0DFAD3154C25
:100EB000A24204D212058918DB07C91830BDD243FB
:100EC000520D00200021F5E703D4013A00184941F2
:100ED000FBD50B324405C00A4D052843C90A6400FE
:100EE00003D0002460416141E1E7E0D34408F8E722
:100EF000FF070000000000380000F07F80030000C2
:100F000032040000FE0700000A0DCC0F531E1B0523
:100F1000C91A520503D3C943404200D30131520DCF
:100F200003D0531CDB0A07D0121B00206400611C95
:100F300089078912803A1203014BD21A70470000C8
:100F4000FF03000002B4714649084900095C4900EA
:100F50008E4402BC7047C046002243088B4274D3C3
:100F600003098B425FD3030A8B4244D3030B8B42AA
:100F700028D3030C8B420DD3FF22090212BA030CB3
:100F80008B4202D31212090265D0030B8B4219D394
:100F900000E0090AC30B8B4201D3CB03C01A5241B4
:100FA000830B8B4201D38B03C01A5241430B8B42FC
:100FB00001D34B03C01A5241030B8B4201D30B03E5
:100FC000C01A5241C30A8B4201D3CB02C01A52410C
:100FD000830A8B4201D38B02C01A5241430A8B42CF
:100FE00001D34B02C01A5241030A8B4201D30B02B8
:100FF000C01A5241CDD2C3098B4201D3CB01C01AD2
:10100000524183098B4201D38B01C01A52414309DB
:101010008B4201D34B01C01A524103098B4201D3C9
:101020000B01C01A5241C3088B4201D3CB00C01A36
:10103000524183088B4201D38B00C01A52414308AE
:101040008B4201D34B00C01A5241411A00D20146D3
:10105000524110467047FFE701B5002000F0F0F85C
:1010600002BDC0460029F7D076E7704703460B4320
:101070007FD4002243088B4274D303098B425FD391
:10108000030A8B4244D3030B8B4228D3030C8B42BD
:101090000DD3FF22090212BA030C8B4202D31212A3
:1010A000090265D0030B8B4219D300E0090AC30B78
:1010B0008B4201D3CB03C01A5241830B8B4201D325
:1010C0008B03C01A5241430B8B4201D34B03C01A0E
:1010D0005241030B8B4201D30B03C01A5241C30A86
:1010E0008B4201D3CB02C01A5241830A8B4201D3F7
:1010F0008B02C01A5241430A8B4201D34B02C01AE1
:101100005241030A8B4201D30B02C01A5241CDD285
:10111000C3098B4201D3CB01C01A524183098B42D0
:1011200001D38B01C01A524143098B4201D34B01B9
:10113000C01A524103098B4201D30B01C01A52411C
:10114000C3088B4201D3CB00C01A524183088B42A3
:1011500001D38B00C01A524143088B4201D34B008C
:10116000C01A5241411A00D20146524110467047FE
:101170005DE0CA0F00D04942031000D34042534003
:1011800000229C4603098B422DD3030A8B4212D3C3
:10119000FC22890112BA030A8B420CD389019211F5
:1011A0008B4208D3890192118B4204D389013AD032
:1011B000921100E08909C3098B4201D3CB01C01A07
:1011C000524183098B4201D38B01C01A524143091A
:1011D0008B4201D34B01C01A524103098B4201D308
:1011E0000B01C01A5241C3088B4201D3CB00C01A75
:1011F000524183088B4201D38B00C01A5241D9D28D
:1012000043088B4201D34B00C01A5241411A00D20D
:101210000146634652415B10104601D34042002B09
:1012200000D54942704763465B1000D3404201B588
:10123000002000F005F802BD0029F8D016E770473D
:101240007047C046844608006146FFE71FB503F0BB
:101250006BFD002801D40021C8421FBD10B503F06A
:101260005BFD4042013010BD10B503F05DFD00286C
:1012700001DB002010BD012010BDC04610B503F0F9
:1012800053FD002801DD002010BD012010BDC04627
:1012900010B503F045FD002801DC002010BD012041
:1012A00010BDC04610B503F03BFD002801DA002058
:1012B00010BD012010BDC0461C2101231B04984213
:1012C00001D3000C10391B0A984201D3000A0839D7
:1012D0001B09984201D30009043902A2105C40188E
:1012E0007047C04604030202010101010000000032
:1012F0000000000002780B78002A03D00130013191
:101300009A42F7D0D01A70470023C25C0133002AFA
:10131000FBD1581E7047000010B5064C2378002BF7
:1013200007D1054B002B02D0044800E000BF012389
:10133000237010BD8800002000000000D460000869
:10134000044B10B5002B03D00349044800E000BF54
:1013500010BDC046000000008C000020D4600008D2
:1013600070B504000D7800F099FE854203D0290085
:10137000200000F0BDFE70BD044B10B51B68C01A04
:10138000034B1968FFF772FE10BDC046D80000205D
:101390000C000020124B70B51A78002A1FD0114B98
:1013A00011491B680868984215DA0B600F4D2868D0
:1013B000984212DD2B600E4C0A222000096803F0CF
:1013C00097FF20000B4903F024FF0A222000296820
:1013D00003F092FF03E00022E8E7002AEBD170BDA2
:1013E000BC000020B80000200800002004000020FD
:1013F000E00200203C61000870B504000025A54211
:1014000000DB70BD0121112004F0A2FA002113209D
:1014100004F09EFAC82004F01DFB0021112004F006
:1014200097FA0121132004F093FAC82004F012FB6C
:101430000135E4E737B5FA20800004F00BFBE12129
:10144000834C06222000490203F06AFE00258149F0
:10145000200003F003FF80227F4B12061D707F4B9C
:1014600001211A607E4B7F4A0D201A6004F014FAA5
:1014700001210E2004F010FA0121062004F00CFADC
:101480000121072004F008FA0121122004F004FAD7
:1014900001210D2004F05CFA01210E2004F058FA1D
:1014A0000121062004F054FA0121072004F050FA2B
:1014B0000121122004F04CFA0121280004F0ECF97B
:1014C0000121112004F0E8F92900112004F040FA6C
:1014D0000121132004F0E0F90121132004F038FA6F
:1014E0000121052004F0D8F92900052004F030FA84
:1014F0000221162004F0D0F90421102000F092FC03
:10150000082000F0CBFD584A031C032800D9032310
:10151000DBB2D55C0C200022290000F095FD0028EC
:1015200000D08DE05149200003F098FE5049200082
:1015300003F06FFE4F49202D0BD007D84E49002DE8
:1015400007D04E49102D04D04D4902E04D49302DB1
:10155000FAD1200003F082FE00F07AFC4A4D4B499C
:101560002860200003F055FE0A222968200003F0BD
:10157000CDFE2868FFF700FF454D46492860200052
:1015800003F047FE0A222968200003F0B5FE00F0B0
:101590005FFCFFF7F1FE404B1860002000F07EFD7D
:1015A000022800D901203D4B8000C3583C4D3D49E5
:1015B00020002B6003F02DFE29680A22200003F092
:1015C00097FE2000384903F049FE0025281D00F051
:1015D00065FD01AB58550135042DF7D1019B334D05
:1015E000002B00DD2B603249200003F012FE296839
:1015F0000A22200003F080FE0C2000F04FFD2D4D4C
:10160000031C002800D0012301222B491340200095
:101610002B7003F0FEFD2B782849002B00D02849C1
:10162000200003F01BFE2000264903F017FE2000D7
:10163000254903F013FE2000244903F00FFE37BDB7
:101640002000234903F00AFE0120FFF7D5FEFBE747
:10165000E002002040610008BC00002008000020DB
:1016600004000020FFFFFF7F5C6500084D6100085B
:10167000626100087D6100086B6100087461000808
:101680009261000887610008D8000020DA61000834
:10169000D4000020E9610008B8000020606500085F
:1016A000DC00002092620008FB6100080C000020B2
:1016B000FD610008B40000200C6200080D63000802
:1016C000F76200081B620008336200085B650008CF
:1016D000A06100080A4B10B51B78002B0ED104F056
:1016E000B5F9084C2368C01A074B984206D9074A37
:1016F000074B12681A6004F0A9F9206010BDC046BB
:10170000D1000020C80000207F969800B80000207B
:10171000D400002070B5162004F056F9040001280A
:1017200035D104F08FF92C4D2B68C01AC8282ED95A
:1017300004F088F928603220284D2E68801BC317DA
:10174000C018584004F0CAF92549FFF78DFD00285C
:101750001ED19630801BC317C018584004F0BEF944
:101760001F49FFF781FD002813D12D30FF30801B6A
:10177000C317C018584004F0B1F91949FFF774FDB8
:101780000134002805D11749174803F067FD70BDE3
:101790000024601C0321FFF74FFD144B8A00D3582F
:1017A0000C000020C9B22B6000F0A2FC104B1B788B
:1017B000002B0DD10C4E0F49300003F02AFD296893
:1017C0000A22300003F094FD30000B4903F046FD7F
:1017D000601CFFF711FEDAE7A4000020DC00002007
:1017E000BD37863557620008E002002060650008BA
:1017F000D000002072620008FB61000810B5154C93
:10180000002123681E2B00DC01210D2004F0A0F82C
:10181000236800212F2B00DC01210E2004F098F812
:1018200023680021402B00DC0121062004F090F801
:1018300023680021512B00DC0121072004F088F8E7
:1018400023680021632B00DC0121122004F080F8C2
:1018500010BDC046B0000020F7B5494B494D4A4E77
:101860001C6837682B686420E21ADB1901929C42DD
:101870000FDA100004F032F90090380004F02EF96D
:10188000011C0098FEF7FAFD4049FEF791FD04F0B7
:1018900005F93F4B1860FFF7B1FF3E4A33680092ED
:1018A000019A934253DA009B3B4A1B780192002B2A
:1018B00033D13A4F3B6801333B60394B1B78002BE7
:1018C0001FD1384C3849200003F0A3FC0A223968A4
:1018D000200003F025FD3549200003F09AFC0A2280
:1018E0002968200003F004FD3149200003F091FC39
:1018F00031680A22200003F0FBFC20002D4903F090
:10190000ADFC0123009A137004F0A0F8019B18604D
:1019100004F09CF8284B1860F7BD04F097F8019B81
:101920001B68C01A254B98420BD90021009B11203F
:1019300019702C6004F00CF80121132004F008F851
:10194000EAE70121112004F003F80021F5E7009BEC
:101950001B78002BE0D004F079F80F4B1B68C01AFD
:10196000174B9842D8D90021112003F0F1FF012133
:10197000132003F0EDFF0023009A1370CCE7C0465C
:10198000B8000020D4000020DC0000200000C84285
:10199000B0000020D1000020CC000020C4000020B6
:1019A000D0000020E0020020816200089062000860
:1019B000A1620008FB610008C80000207F96980023
:1019C000DF93040010B504F03DF80B4C2368C01AF7
:1019D0004F2810D909480A4A01681368591801604C
:1019E000481EFD2801D95B421360002003F0F4FE7D
:1019F00004F028F8206010BDA8000020AC000020F2
:101A000000000020F0B5060087B003AC03F020FE14
:101A10008149200003F02FFD2100300003F0E7FD95
:101A20000500200003F0E0FC002D3ED00422310030
:101A30002000B36803F0E8FD200003F032FE05004B
:101A4000200003F0D1FC002D2ADD744E3560042502
:101A5000734B28005F5D00F021FB874203D0390003
:101A6000280000F045FB0135082DF1D16D4920001B
:101A700003F001FD0A223168684603F03AFD694629
:101A8000200003F07DFD684B0100180003F0DCFB33
:101A9000684603F0A9FC200003F0A6FC07B0F0BDE7
:101AA0006249614803F0DAFBF8E73000604903F06F
:101AB00074FD5D4D002813D000F0CAF95D4E5E49FB
:101AC0003060200003F0D7FC0A226846316803F03A
:101AD00022FD6946200003F053FD01002800D5E7F0
:101AE0003000564903F059FD002811D00123544E0F
:101AF0005449327820005340337003F0BCFC3378F3
:101B00005149002B00D05149684603F0B4FCE0E78E
:101B10004F49200003F0AFFC2100300003F067FDC7
:101B20000700200003F060FC002F23D03100B368D1
:101B30000A22200003F068FD200003F0B2FD6B468E
:101B4000C6B244491E70032E0DD869460820FFF71F
:101B500007FC4149280003F05CFB31000A22280001
:101B600003F0EAFB3D49280003F078FB200003F076
:101B70003BFC93E730003A4903F00FFD002810D0FA
:101B80000123384A11784B401370374907D080221F
:101B9000364B12061A60364B364A37491A6028000F
:101BA00080E73000354903F0F8FC00280FD001230E
:101BB000334E210032780C20534023703370FFF7EE
:101BC000CFFB33782F49002BE9D02F49E7E72F4986
:101BD000300003F0E2FC2E490028E0D02D49280017
:101BE00003F03CFB2C49280003F038FB2B4928006C
:101BF00003F034FB2A49280003F030FB2949280070
:101C000003F02CFB2849280003F028FB2749280073
:101C100003F024FB2649C2E7146300080C000020EF
:101C20000800002019630008E0020020316300086A
:101C30003E630008D800002042630008516300089A
:101C4000D000002058630008A6620008BC620008AB
:101C500068630008B0630008736300088F630008BE
:101C6000CF630008BC000020C36200080800002009
:101C700004000020FFFFFF7FAD620008D66300086C
:101C8000B4000020FE620008E8620008DA63000881
:101C90002A650008DF630008FA6300082964000869
:101CA000886400089B640008C7640008F0640008AA
:101CB00010650008F0B589B000F0CAF8FFF75CFBCA
:101CC000354B05001B78354E002B61D0306803F092
:101CD00005FF3349FEF76CFB041C280003F0FEFEF1
:101CE0003049FEF765FB011C201CFEF7F9FA03F0F2
:101CF000D5FE3060FFF766FEFFF70CFDFFF7ACFD89
:101D0000FFF7E8FCFFF746FB03F09CFE264F274C4D
:101D10003B680190C31A632B21D9254B1B78002BFC
:101D20001BD00A222900200003F0E2FA214D2000F6
:101D3000290003F06EFA0A223168200003F0D8FA75
:101D40002900200003F065FA1B4A1C4B11681B6830
:101D50000A222000C91803F0CFFA019B3B60200043
:101D600002F0E6FF002811D00A22210002A803F0A9
:101D700023FB02A905A803F0A1FB05A8FFF742FE7B
:101D800005A803F031FB02A803F02EFB09B0F0BD5B
:101D900003F0A4FEABE7C046B4000020B80000206A
:101DA000CDCC4C3FCDCC4C3EC0000020E00200200A
:101DB000D000002057650008DC000020D40000207F
:101DC000F0B50600002785B0144D154C0121286898
:101DD00003F0BEFDA368002102936368029B28689C
:101DE0000393A36801370293039B029B039B029B0F
:101DF000029B039303F0ACFDA36800936368009B10
:101E00000193A3680093019B009B019B009B009B97
:101E10000193B742D8D105B0F0BDC046E400002020
:101E200010E000E070B5084C084D216001212860E9
:101E300003F032FD2868002103F08AFD02212068AA
:101E400003F02AFD70BDC046E0000020E400002041
:101E5000F0B5274E0021306887B003F079FD254F9B
:101E6000386803F0B1FD041EF9D10121052003F00B
:101E70006FFD17230193204D0121306803F068FDA9
:101E8000AB68386804936B68049B0593AB68049354
:101E9000059B049B059B049B049B059303F094FD09
:101EA000019B002198400443306803F051FDAB686A
:101EB00002936B68029B0393AB680293039B029BA4
:101EC000039B029B029B0393019B5A1E0192D2D259
:101ED0000320FFF775FF0021052003F039FD802363
:101EE0001B049C4201DB054BE418200007B0F0BD49
:101EF000E4000020E000002010E000E0010000FF0E
:101F0000F0B58FB00492039105930290FFF7A0FF04
:101F10004A4B0121186803F0BFFC0220FFF750FF75
:101F200056230193029B002B01D0652301930625C4
:101F3000434E444C0121306803F00AFDA368019927
:101F400008936368089B29410993A3683B4F089352
:101F5000099B089B099B089B089B386809930123F0
:101F6000194003F0F5FC0021306803F0F1FCA36890
:101F700006936368069B0793A3680693079B069BDB
:101F8000079B069B069B0793013DD1D20120FFF7DB
:101F900017FF02210025029B3868C91A03F07CFC58
:101FA000029BAB4205D0059B049D1D43039B2B4325
:101FB0001D00072301933068012103F0C9FCA368C9
:101FC00038680A9363680A9B0B93A3680A930B9B78
:101FD0000A9B0B9B0A9B0A9B0B93029B002B25D011
:101FE0002900019B19410123194003F0B1FC002194
:101FF000306803F0ADFCA3680C9363680C9B0D93F1
:10200000A3680C930D9B0C9B0D9B0C9B0C9B0D9341
:10201000019B5A1E0192CED20120FFF7D1FE3868F3
:10202000022103F039FC28000FB0F0BD03F0CCFC16
:10203000019B98400543EDB2D9E7C046E00000207F
:10204000E400002010E000E0F7B507000D001600E6
:10205000032433002A0039000120FFF751FF330029
:1020600001902A0039000020FFF74AFF019B8342BC
:1020700006D0013CE4B2002CEBD101204042FEBD71
:102080000020FCE710B580220248034903F0C6FF98
:1020900010BDC046E8000020807F000810B5040095
:1020A000FFF7F0FF014B185D10BDC046E8000020AF
:1020B0007FB500230093023301930B4B029301235E
:1020C000039300F019F9694601A800F04DF90028C2
:1020D00006D10120054A044900F026FA0028F8D16B
:1020E00000F01CF907B000BD807F0008E800002068
:1020F00010B5024B1954FFF7DBFF10BDE8000020BC
:1021000070470000104B70B519680500002901D117
:10211000012070BDFA208000FEF71EFF0B4C01006D
:102120002068FEF719FF00F079F8041EF0D1032DA6
:10213000EED8020001202900404200F029F8044BAB
:1021400020001D60E5E7C0461000002024000020AC
:102150001400002010B50020FFF7D4FF041E03D1A7
:10216000FFF7CEFF200010BD0124FBE7034A04491E
:10217000136809685B1813607047C0466801002047
:1021800010000020014B18687047C046680100200D
:1021900010B5FF2403220B0021000240D200914021
:1021A0009B012340C943934000280ADBC0240B4A0B
:1021B000800880008018A40002590A40134303518C
:1021C00010BD0F2210400838054A80088000801892
:1021D000C26911401943C161F2E7C04600E100E065
:1021E00000ED00E0002805DB1F2318401E3B834064
:1021F000014A13607047C04600E100E0002809DB97
:102200001F2318401E3B8340034AD367BFF34F8F01
:10221000BFF36F8F7047C04604E100E08022431E89
:102220005204012093420DD2C021074A074853604F
:10223000036A09061B021B0A0B43036200200723E3
:10224000906013607047C04610E000E000ED00E0D1
:10225000002807DB1F23C02218401E3B8340024991
:1022600052008B507047C04600E100E0704710B547
:10227000FFF7FCFF10BD000010B5841CE37F022BAC
:1022800003D004238363012010BD0E21026813686C
:102290008B43136001231168994311600B498A42F3
:1022A00003D00B4B9A420DD110230A4A53600123ED
:1022B0000022E377C318DA77436B934200D0984744
:1022C0000020E1E780235B00EFE7C0460800024002
:1022D0001C000240000002400022054B5A6002230D
:1022E000044A51690B435361FF2303607047C046A2
:1022F0006C010020002002400020054B5A698242F8
:1023000005DA044A9A60044A9A605869C00F704717
:102310000020024023016745AB89EFCD8022044BAA
:10232000120659690A435A615869C043C00F704781
:102330000020024070B504008025FFF723FF6D02E6
:102340000419074B1A69100028402A4205D0FFF7EC
:1023500019FFA042F5D3032001E0024A1A6170BDC3
:102360000020024011800000F7B5684B0400019383
:102370001B780F000220012B66D00123019A6449CB
:102380001370644B5A68644B1204520F82405258C7
:102390005D681168FD300E000640B5422AD19D6887
:1023A000AC46CD01ED0DAC4524D15D69090A014073
:1023B0008D421FD15168DD68084085421AD11869E5
:1023C0004901490D884215D191689869C903C90B23
:1023D00088420FD1D168D869C903C90B884209D195
:1023E00011691D6A88B2854204D1586A8900890C36
:1023F00088421CD05E601168C901C90D996051788E
:1024000059615168C9B2D96051684901490D1961D2
:102410009168C903C90B9961D168C903C90BD96116
:10242000116989B2196212699200920C5A62266887
:10243000012E1DD1FA208000FFF77CFF002804D078
:1024400001200023019A1370FEBD0425019B334C2B
:1024500058606369FA202B4363618023304A1B056F
:102460001A608000FFF766FF6369AB436361E8E7CA
:10247000022E21D1FA208000FFF75CFF0028DFD177
:1024800001235B423B6065680130A3686268DB0141
:102490009B18AB42D5D92800FFF71EFFFA20800019
:1024A000FFF748FF1D4A5369B3435361002801D029
:1024B0003D60C6E78035E8E7032EC1D1FA208000F1
:1024C000FFF738FF0028BBD101235B423B60E56882
:1024D00001302369E2681B039B18AB42B1D980220B
:1024E0000E4E12017369FA2013437361FF238000BB
:1024F0002B60FFF71FFF73690A4A134073610028BE
:10250000D6D180235B01ED18E3E7C0466C010020C3
:102510006C65000800100240FC20024000200240D0
:1025200021433412FFF7FFFFF7B53E4D0C002B7827
:1025300002200192012B64D001232B703A4B3B49BE
:102540005A683B4B1204520F824052585E68116821
:10255000FD300F000740BE422AD19E68B446CE012E
:10256000F60DB44524D15E69090A01408E421FD19F
:102570005168DE68084086421AD118694901490D40
:10258000884215D191689869C903C90B88420FD157
:10259000D168D869C903C90B884209D111691E6A7B
:1025A00088B2864204D1586A8900890C88421CD0BE
:1025B0005F601168C901C90D99605178596151680E
:1025C000C9B2D96051684901490D19619168C903BF
:1025D000C90B9961D168C903C90BD961116989B265
:1025E000196212699200920C5A620120630608D1A6
:1025F000FA208000FFF79EFE061E03D00023300065
:102600002B70FEBD0199200003F070FDFA208000C0
:10261000FFF790FE0121074A53698B43536100285D
:10262000ECD0EEE76C010020001002406C65000861
:10263000FC20024000200240044B10B5DA68104232
:1026400002D0D86001F042FE10BDC0460018024022
:1026500030B587B001A90A00224B31CB31C211CB72
:1026600011C2214B38229C682000104014420ED128
:1026700007241A685B68D20A5B0B22402340042BB4
:1026800000D8180080000858D04007B030BD9868C6
:10269000104008281FD09868104010280FD1DC681F
:1026A0000F3822000240044217D15B681B045B0F05
:1026B000042B00D81A00920088584000E5E799687A
:1026C000114020290BD09B6800201340182BDCD12F
:1026D000FA20C001D9E70548D7E70548D5E78020AB
:1026E0000002D2E7286100080010024000127A00C0
:1026F0000024F400F0B5040085B0002802D10120C8
:1027000005B0F0BD01220368134210D123689B0776
:1027100065D423681B0700D5DAE023685B0700D582
:102720000BE1636A002B00D0A4E10020E8E7382128
:10273000C44DAB680B40E968102B22D1114222D165
:102740006368002B33D0A1680029D8D00C202A69F7
:1027500082430A432A618022520293421AD12A6894
:1027600013432B60FFF70EFD80270600BF022B6886
:102770003B42CBD1FFF706FD801B6428F7D903202D
:10278000BEE7082BDCD12B689B03BFD56368002B09
:10279000BCD1B4E7A021C9028B4208D180232968AB
:1027A000DB020B432B602B681A432A60DAE72A68A6
:1027B000A5490A402A602A68A4490A402A60002BD9
:1027C000D0D1FFF7DFFC80270600BF022B683B4219
:1027D0009CD0FFF7D7FC801B6428F7D9CFE73823BC
:1027E000984DAE681E40EB68102E1ED1DB071ED53B
:1027F0006369002B59D02B68954A80271340A26942
:10280000FF0013432B6080232A685B0013432B6077
:10281000FFF7B8FC06002B683B4240D06B68E269CA
:102820001B0C1B0413436B6073E7002EE0D12B6875
:102830005B0503D56369002B00D160E76B68E26933
:102840001B0C1B0413436B60FFF79CFC07008022EA
:102850002B68D20013421CD0002E12D12B687C4A68
:102860001340A26913432B60FFF7F2FEAB6879496E
:102870001B051B0F9B005B581F210B40D840764A5D
:102880001060764B1868FFF73DFC002800D140E748
:1028900035E7FFF777FCC01B0228D8D96FE7FFF7B1
:1028A00071FC801B0228B6D969E72B686C4A802727
:1028B00013402B60FFF766FC0600FF002B683B42CD
:1028C00000D126E7FFF75EFC801B0228F6D956E709
:1028D00038225C4DAB681340182B08D12B6E9B0738
:1028E00000D41AE7236A002B00D016E707E7226A14
:1028F0000123002A10D02A6E022713432B66FFF70C
:1029000041FC06002B6E3B4200D006E7FFF73AFC85
:10291000801B0228F6D932E72A6E02279A432A66DC
:10292000FFF730FC06002B6E3B4200D1F5E6FFF7C7
:1029300029FC801B0228F6D921E73822414DAB68DB
:102940001340202B08D1EB6D9B0700D4E9E6E36828
:10295000002B00D0E5E6D2E680220021EB6B520589
:102960000091134208D1EB6B1343EB63EB6B134005
:102970000393039B0123009380273A4E7F00336823
:102980003B421AD0E368002B27D10121EA6D8A432C
:10299000EA65EA6D03318A43EA65002B2ED1FFF721
:1029A000F1FB02270600EB6D3B422ED0FFF7EAFB5E
:1029B0002D4B801B9842F6D9E1E633683B433360E8
:1029C000FFF7E0FB019033683B42DBD1FFF7DAFB16
:1029D000019BC01A0228F6D9D1E6C02221699202D1
:1029E000224811421AD180222969920201400A43E9
:1029F0002A61012B15D1EA6D1343EB65FFF7C2FB8A
:102A000002270600EB6D3B4214D0009B012B00D047
:102A100087E6EB6B164A1340EB6382E62A690240B5
:102A2000E5E7052BB1D1EA6D013B1343EB65EA6D98
:102A30000123E1E7FFF7A6FB0B4B801B9842E1D98E
:102A40009DE6C04600100240FFFFFEFFFFFFFBFFB8
:102A5000FFC7FFFF246600082400002014000020A8
:102A6000FFFEFFFF0070004088130000FFFFFCFF27
:102A7000FFFFFFEF3821324DAA680A40102A52D0DA
:102A8000304A022B39D12B68802713402B60FFF787
:102A900079FB0600BF042B683B4228D1A26A012AB9
:102AA00000D12CE6002A09D16B6827491B045B0F73
:102AB0009B0026485B58834200D820E60121EB6842
:102AC00080268B431343EB6080232A685B04134307
:102AD0002B60FFF757FB0400B6042B68334200D08D
:102AE00023E6FFF74FFB001B0228F6D947E6FFF766
:102AF00049FB801B0228CED941E62B688026134073
:102B000001222B60EB68B6049343EB60FFF73AFBBE
:102B100004002B68334200D107E6FFF733FB001BAC
:102B20000228F6D92BE6012B00D1E8E50123E8685D
:102B30001840A36AC01A431E9841C0B2E0E5C046DF
:102B400000100240FFFFFFFEE4650008FF23F400D1
:102B5000F7B504000E00002801D10120FEBD0127B9
:102B6000474D2B683B408B4228D32268930739D4CA
:102B7000D20746D401272B683B40B34208D92B68C3
:102B8000BB432B60FFF7FEFA06002B683B4269D17E
:102B900023683C4D5B076CD4FFF75AFDAB683A499C
:102BA0001B051B0F9B005B581F210B40D840374A69
:102BB000374B10601868FFF7A5FACFE72B68BB43C7
:102BC0000B432B60FFF7DEFA01902B683B40B342CA
:102BD000CBD0FFF7D7FA019BC01A2E4B9842F4D9FD
:102BE0000320BBE72749530704D5E0238868DB01AE
:102BF00003438B608B6828480340A06803438B60C5
:102C0000B6E760681F4F04282AD8FEF79BF91D031A
:102C1000212925003B689B039FD50722BB6893436E
:102C20000343BB60FFF7AEFA01903823BA681A403D
:102C30006368DB009A429DD0FFF7A4FA019BC01A9B
:102C4000144B9842F1D9CBE73B685B05E5D484E7A8
:102C50003B689B01E1D480E7FB6D9B07DDD47CE7FB
:102C60003B6EFAE7FFF78EFA0A4B801B98428CD92D
:102C7000B6E7AB68094A1340E2681343AB608BE7E1
:102C800000200240001002402466000824000020BA
:102C90001400002088130000FFF0FFFFFF8FFFFFEC
:102CA000064B07499B68074A5B045B0F9B005B5818
:102CB0001F2110680B40D8407047C04600100240EA
:102CC000046600082400002010B507240A4B0460A5
:102CD0009A682240F02442609A682401224082606F
:102CE000E0229B68D20113400122C360034B1B68A2
:102CF00013400B6010BDC04600100240002002408F
:102D00000122036A70B593430362036A44688569CC
:102D1000723295430A681543022293438A6813432B
:102D20000D4A904205D00D4A904202D00C4A904282
:102D30000BD108229343CA688E691343042293433C
:102D4000084A22404C69344314434A684460856110
:102D50004263036270BDC046002C01400044014044
:102D600000480140FFFCFFFF036A174A70B513409B
:102D700003627323056A4268C4699C430B681C4361
:102D8000124B1D408B681B022B43114DA8420ED1E4
:102D9000104D1D40CB681B022B430F4D2B400F4D98
:102DA0008E6915404A69324312012A4305E00C4DF1
:102DB000A842F4D00B4DA842F1D042604A68C461E9
:102DC000C263036270BDC046FFFEFFFFFFFDFFFF51
:102DD000002C0140FFF7FFFFFFFBFFFFFFCFFFFFCE
:102DE0000044014000480140036A124A30B51340D4
:102DF0000362046A104D4368C2692A400D682D02BF
:102E000015430E4A14408A68120322430C4CA04218
:102E100005D00C4CA04202D00B4CA04204D10B4C6C
:102E20001C404B699B01234343604B68C5610364AD
:102E3000026230BDFFEFFFFFFF8CFFFFFFDFFFFFF0
:102E4000002C01400044014000480140FFBFFFFF4B
:102E5000010002233D310B70036807209A6802408D
:102E6000062A03D00122186802431A6001230020B9
:102E70000B707047020030B502243C321578030015
:102E80002000012D08D018003D3004701B685961E6
:102E9000012303700020107030BD7047704702227C
:102EA000036810B51969040011420ED0D9681142A7
:102EB0000BD0053A1A61043202779B699B0700D157
:102EC00079E001F0F6F800232377042223681969DA
:102ED000114210D0D96811420DD0093A1A61073257
:102EE00022779A69C0239B0020001A4269D001F022
:102EF000E0F80023237708222368196911420ED0D5
:102F0000D96811420BD0113A1A610D322277DB6970
:102F100020009B075BD001F0CCF800232377102220
:102F200023681969114210D0D96811420DD0213A95
:102F30001A6119322277DA69C0239B0020001A42F5
:102F40004BD001F0B6F800232377012223681969DA
:102F5000114207D0D968114204D0033A20001A6107
:102F600001F07CF8802223681969114208D0D968E1
:102F7000114205D0023AFF3A20001A6100F091FA9E
:102F8000402223681969114207D0D968114204D040
:102F9000813A20001A61FFF781FF20222368196916
:102FA000114207D0D968114204D0413A20001A6179
:102FB00000F076FA10BD01F078F82000FFF76DFF01
:102FC00081E701F072F82000FFF767FF91E701F059
:102FD0006CF82000FFF761FF9FE701F066F8200022
:102FE000FFF75BFFAFE7000010B5184C0368A04285
:102FF0000AD0174A904207D0164A904209D1164A81
:103000001A40CB6813430AE0702293434A68134383
:10301000F5E7124A9042F2D0114A9042EFD0802256
:1030200093434A69134303608B68C3620B688362EE
:10303000A04205D0094B984202D0094B984201D1D9
:103040000B6903630123436110BDC046002C01409E
:103050000004004000200040FFFCFFFF004401404E
:103060000048014070B504000120002C14D0250058
:103070003D352B78DAB2002B05D123003C332000FC
:103080001A7001F0D9FB02232B702068211DFFF775
:10309000ABFF012300202B7070BD00001022036ADB
:1030A00070B593430362056A154C426883692340F7
:1030B0000C6824021C4320239D438B681B012B4377
:1030C000104DA8420FD18025AB431E00CB68403D78
:1030D0001B013343AB430C4D8E6915404A693243A3
:1030E00092002A4305E0094DA842F4D0084DA842B9
:1030F000F1D042604A6884618263036270BDC04659
:10310000FF8CFFFF002C0140FFF3FFFF0044014054
:103110000048014070B5040002263C3425780300C5
:103120003000012D0DD01D003D352E70082A17D01E
:1031300008D8002A0CD0042A0ED0012300202B70BE
:10314000207070BD0C2AF8D11868FFF74DFEF4E727
:103150001868FFF7D5FDF0E71868FFF79FFFECE769
:103160001868FFF701FEE8E7F7B50700150002222F
:103170003C370C00397803001000012911D00121DF
:10318000397019003D3101910A70082D44D009D8D9
:10319000002D1DD0042D2DD001230020019A137085
:1031A0003870FEBD0C2DF7D11D6821002800FFF7F7
:1031B0001BFE8023EA691B011343EB61EB691F4A85
:1031C0001340EB612369EA691B021343EB61E3E7F8
:1031D0001D6821002800FFF793FD0823AA69134307
:1031E0000422AB61AB699343AB61AB6922691343C2
:1031F000AB61D1E71D6821002800FFF74FFF802356
:10320000AA691B011343AB61AB690C4A1340AB6164
:103210002369AA691B02EAE71E6821003000FFF754
:10322000A3FD0422F3691D43F561F3699343F36140
:10323000F36922691343F361AEE7C046FFFBFFFF6A
:10324000F0B501261500026A0D4FB2430262826991
:10325000046AB84210D00B4FB8420DD03243F0256B
:10326000AA431B010F352B4013430A2294431140FC
:10327000214383610162F0BD0326B2432A43EEE796
:10328000002C014000040040F7B5170002000223A3
:103290003C320E0011780500180001291AD00121D6
:1032A000537011702C6831687268F368002F12D166
:1032B0002000FFF7C5FF0C22A3699343A361A36914
:1032C000B2681343A3612B00012200203D333C353B
:1032D0001A702870FEBDB068266A0190042F1ED1B6
:1032E0000C37BE432662A7692E48120207403A43B4
:1032F0002D4F1B073A401B0C1343A022266A0901DD
:10330000964311403143A3612162A369274A1340C8
:10331000A361019AA36910021843A061D3E7082FA3
:103320001FD10320224F1B013E402662E669276A17
:1033300086431643F02296430F3213401D4A09027A
:103340001740A022120111400C2233433943E3619C
:103350002162E3699343E361E369019A1343E36103
:10336000B1E7154F0F483E402662E7691202074059
:103370003A430D4F1B073A401B0C266A13430F4A72
:10338000090316408022920111403143E36121621A
:10339000E369064A1340E361019AE36910021843A6
:1033A000E06190E7FFFCFFFFFF0FFFFFFFF3FFFF70
:1033B000FFFEFFFFFFF5FFFFFFEFFFFFFFDFFFFF58
:1033C0001F2310B5012419408C408A40036AA3438F
:1033D0000362036A1A43026210BD000010B504685C
:1033E00001222000FFF7ECFF0C4B9C4205D00C4B58
:1033F0009C4202D00B4B9C4204D18023626C1B0286
:10340000134363640722A3681340062B03D00123F0
:10341000226813432360002010BDC046002C0140E9
:10342000004401400048014010B5FFF7D7FF10BD30
:1034300010B5046801222000FFF7C2FF0722A3682D
:103440001340062B03D0012322681343236000207E
:1034500010BD1F2310B5042419408C408A40036A14
:10346000A3430362036A1A43026210BD10B50468E5
:1034700004222000FFF7EDFF8023626C1B02134340
:1034800007226364A3681340062B03D0012322683C
:1034900013432360002010BD10B5FFF7E7FF10BDF8
:1034A0007047704703680649DA6846300A40DA60B8
:1034B0005A692331FF318A435A61202303707047D0
:1034C000DFFEFFFF70B5040003682E491A69192555
:1034D0000A40C1680A431A6182680069D9680243D8
:1034E00060690243284801400A43DA605A69274864
:1034F000E16902400A435A615A6925480240A069BD
:1035000002435A6180231B01994220D1FFF7C8FB77
:10351000616868434900FDF71FFD64210600FDF75F
:10352000A1FDC80032306421FDF716FD64210500BD
:103530003000FDF711FD072300012B40C018F823D0
:103540006D005B0024681D404519A56070BDFFF744
:10355000A7FB616868438900FDF7FEFC6421050054
:10356000FDF780FD080132306421FDF7F5FC266887
:10357000642104002800FDF7EFFC00012418B4606A
:10358000E4E7C046FFDFFFFFF3E9FFFFFFF7FFFFC0
:10359000FFFCFFFF7047000070B504000120002C05
:1035A0003ED0250045352B78DAB2002B05D123001B
:1035B000443320001A70FFF7EDFF24232B7022689C
:1035C0001849D36820000B40D360FFF77BFF226AC5
:1035D0002368002A11D052060FD55A691248616A31
:1035E00002400A435A6180225201914205D15A6930
:1035F0000E490A40A16A0A435A611A690C4900201F
:103600000A4008211A615A698A435A618022D9689E
:1036100092010A43DA602023A06446342B702370A1
:1036200070BDC046FFDFFFFFFFEFFFFFFF9FFFFF03
:10363000FFF7FFFF70B504000120002C29D0250002
:1036400045352B78DAB2002B05D123004433200016
:103650001A70FFF79FFF24232B7022680D49D3684F
:1036600020000B40D360FFF72DFF23680A491A6939
:1036700000200A401A61082259690A435A618022CF
:10368000D96892010A43DA602023A06446342B7083
:10369000237070BDFFDFFFFFFFF7FFFF70B5050070
:1036A00045352C7803000220202C17D10138002941
:1036B00014D0002A12D01C00443426780130012E88
:1036C0000CD05A861A8600202122D96298642A706A
:1036D00020701A688023D1680B43D36070BDF0B5A9
:1036E0000600463635780300ECB20220202D1ED1AC
:1036F000013800291BD0002A19D01D0044352F782D
:103700000130012F13D05A871A8700202222986493
:103710005963327028701B68DE32D9680A43DA6058
:10372000012259690A435A61DA681443DC60F0BD2A
:10373000010070B546310B78222B26D18024856894
:103740000268436B6401A54220D10469002C1DD19D
:103750005268D205D20D1A8002334363438F013B76
:103760009BB24387002B10D1202403680A4DDA68EE
:10377000A243DA60DA682A40DA605A690335FF3515
:10378000AA435A610C7001F001FA70BD52685C1CCA
:1037900044631A70E2E7C046FFFEFFFFF8B5036816
:1037A00004001A68D9685869150708D12020024218
:1037B0005DD001425BD02000FFF7BAFFF8BD902634
:1037C0000125760028400E40064350D02A4204D0FE
:1037D000CB0502D5A36C1D43A564530705D500286E
:1037E00003D00223A56C2B43A364930705D50028BF
:1037F00003D00423A56C2B43A36408231A4204D0EE
:10380000002802D0A06C0343A364A36C002BD5D086
:1038100020231A4204D0194202D02000FFF788FF6B
:1038200040270822266820007569A36C3D4013409C
:103830001D4318D0FFF736FE73693B420FD0736902
:10384000206CBB437361002809D0284B4363FEF70B
:1038500013FD0028B2D0206C436B9847AEE72000E0
:1038600001F09EF9AAE701F09BF9A564A6E7802084
:10387000024229D0014227D0220045321278212A63
:103880009CD18021A068E26A4901884218D121694F
:10389000002915D111880232C905C90D5960E262AB
:1038A000628E013A92B26286002A00D086E78021B9
:1038B000DA688A43DA604022D9680A43DA607DE731
:1038C000117801325960EAE74020024200D175E7E1
:1038D000014200D172E7DA688243DA6023002022D5
:1038E000453320001A7001F056F967E7F1380008F7
:1038F000002310B5406A4387438601F051F910BD9B
:10390000010010B544310A7803000220012A0ED0CC
:1039100018002422453002701C680C23E2689A4388
:10392000043B1343E360202303700020087010BDA4
:10393000010010B544310A7803000220012A0ED09C
:1039400018002422453002701C680C23E2689A4358
:10395000083B1343E360202303700020087010BD70
:103960000300453346301B7800781843704783685E
:1039700010B50400002B05D0032201009847002356
:10398000A360E36010BD836810B50400002B02D073
:10399000032201009847200010BD4B1E032B02D8C4
:1039A00088000438704701204042FBE70139435C3E
:1039B000002B05D0054B022905D90120404204E027
:1039C0000329FAD8024B4900C85A70479C65000881
:1039D000946500080139032902D8034B585C7047ED
:1039E00001204042FBE7C0469065000801390329E9
:1039F00002D8034B5856704701204042FBE7C046AF
:103A00008C650008F7B504000E00FFF7C6FF05003F
:103A1000431C00D1FEE731002000FFF7DBFF03006D
:103A20000190013300D1FEE731002000FFF7BEFF17
:103A3000013000D1FEE737015837E719BB68002B8A
:103A400007D0019B2269DB431361D36801990B43C3
:103A5000D360731E5A00A21890880C2810D8FDF766
:103A600071FA4444131313070713133E3E3E1F001D
:103A70002000E35C29001030002B02D0FFF70CFD82
:103A8000F7BDFFF7D1FCFBE72000E35C2900103015
:103A9000002B02D0FFF7EAFCF2E7FFF79FFCEFE70D
:103AA000200029001030FFF7C3FC31002000FFF791
:103AB0009DFF010006002000FFF778FF25692B6AB3
:103AC0001843BB682862002BDAD031002000FFF7D2
:103AD00081FFC3432B61EB681843E860D0E7200007
:103AE00029001030FFF7A4FCCAE723691B68DB0735
:103AF000C6D420001030FFF7ABF9C1E7036E10B554
:103B00000400002B0AD00222036952421A61D968CC
:103B100003320A43DA601030FFF79AF920000121DE
:103B2000FFF770FF20000221FFF76CFF2000032148
:103B3000FFF768FF04212000FFF764FF10BD0000BD
:103B4000F0B591B004000E001F000192FFF725FFB1
:103B50000500431C00D1FEE74D4B09932369002863
:103B60001BD15B6B01220A9300230692721E039203
:103B7000019A0B930D930E930C930F930593079358
:103B800008930C2A2AD81000FDF7DCF943112142D2
:103B9000494B5456585C5A636500042801D19B6B0D
:103BA000E0E7082801D1DB6BDCE71B6CDAE7760085
:103BB000A6197388002B08D0002320002A007380E8
:103BC000103009A90993FFF7A5FA11B0F0BD102331
:103BD0002A00099309A9E018FFF79CFA039B019AB0
:103BE0005B00E3189A807B1CEFD0380000F04EFE9B
:103BF000A8424CD1274D3800290000F0ABFC290029
:103C0000380000F00BFD039BC002C00FE054DCE75E
:103C1000202320002A00099309A91030DCE7302373
:103C2000F7E7602320002A0009A910300993FFF765
:103C30009BFAD3E77023F5E75023EAE74023E8E750
:103C40000223059320002A0005A91030FFF71CFB72
:103C5000C4E70A23F5E7230010332A00180005A95A
:103C60000293FFF711FB31002000FFF7BFFE0C228B
:103C7000431E5B00E3189A80022301002000059395
:103C80000693FFF78AFE05A902000298DEE7FEE729
:103C9000FFFF000004690008013903000020032928
:103CA00002D849005B189888704710B50121103080
:103CB000FFF7E0F810BD036918680123184070474A
:103CC00070B505000C00FFF7F6FF00280FD10126A4
:103CD000E36833420CD0E3682800B343E360FFF7A6
:103CE000E4FF02235B422361E3681E43E66070BD8C
:103CF0002800FFF7DAFFFAE70D4A0300002093429D
:103D000014D00C4A0130934210D00B4A0130934238
:103D10000CD00A4A0130934208D0094A9B185A42F3
:103D200053415842074B1840074BC0187047C046D4
:103D3000002C0140000400400020004000440140ED
:103D400000B8FEBF0500FFFFFFFF000070B50400D4
:103D50000069FFF7D1FF05002000103000F0DCFC07
:103D60000022084BAD00EA5026002500E260A8358D
:103D70005836B54204D0103D2800FFF704FEF8E79E
:103D8000200070BD84010020F7B5040008000D007C
:103D9000FFF7B2FF1F4FB84200D1FEE72369002BA7
:103DA00000D0FEE721001C4A80000C318150220027
:103DB0002C32256126001370203223636363A363D2
:103DC000E36323646364A3641370537003221036A7
:103DD00063653000E460226500F04AFC23002500A2
:103DE000A833583501932800FFF7C1FD019B10351A
:103DF0009D42F8D1002323606360A3606361A361E7
:103E00002362636280333000E761A362FFF72AF91F
:103E1000F7BDC046FFFF00008401002010B586B04A
:103E200004001022002102A802F050F8002302A88A
:103E300001A90193FEF748FF206900F022FD012847
:103E400015D1059CFEF72CFFC023DB019C4206D058
:103E500007D88022064BD2012340934205D140006F
:103E600003E0E023DB019C42F9D006B010BDFEE781
:103E7000FFEFFFFF70B505000C00012A0CD0022AED
:103E800018D023005A1E93412969E41A2800CC62F5
:103E9000EC61FFF715FF70BDFFF7C0FF0849FDF7A4
:103EA0005BF860432B69010C99620131FDF754F80E
:103EB0000400E6E7FFF7B2FF2100FDF74DF8F1E758
:103EC00040420F00F7B5060014001D00FFF765FD26
:103ED000336907009A6A411C00D1FEE70132019262
:103EE000822D29D021D8102D11D8002D2AD1316949
:103EF0001D4ACB6A934203D10132944200D11C0087
:103F0000002F26D14C633000FFF7DAFEF7BD812D7C
:103F1000EDD13000FFF782FF1449FDF71DF8604333
:103F20000199FDF719F80400E1E7832DDFD1D86A84
:103F3000642101306043F4E73000FFF76FFF01991F
:103F40006143EEE70121A940D86A0139013060439D
:103F5000E7E7042F01D18C63D5E7082F01D1CC63AB
:103F6000D1E70C64CFE7C046FFFF000040420F00DE
:103F7000044B10B51868002802D00430FEF78FFFFC
:103F800010BDC0468401002010B5FFF7F1FF10BD41
:103F9000044B10B55868002802D00430FEF77FFFAC
:103FA00010BDC04684010020044B10B5986800285D
:103FB00002D00430FEF773FF10BDC046840100201C
:103FC000044B10B5D868002802D00430FEF767FF14
:103FD00010BDC04684010020044B10B518690028AC
:103FE00002D00430FEF75BFF10BDC0468401002004
:103FF00010B50C220021040001F068FF002320000E
:10400000E36010BDF8B50500070004000E00583548
:10401000A83728001035FFF7EBFFBD42F9D1002388
:10402000310020002361FFF7AFFE2000F8BD836858
:1040300010B5002B01D101F09BFDC368984710BD5E
:1040400010B5002800D1FEE700F010FB0068036EF9
:10405000002B02D05830FFF7EAFF10BD10B5FFF774
:10406000EFFF10BD030010B5002800D1FEE7007F70
:104070000138072812D8FCF765FF04161112111138
:1040800011140124180000F0F1FA240100685834DA
:1040900000198368002B01D0FFF7C9FF10BD03246E
:1040A000F0E70424EEE70224ECE710B5FFF7DAFFAF
:1040B00010BD10B5FFF7D6FF10BD0000030084B09F
:1040C000012811D002281AD0002083420AD10121F0
:1040D000A020104BC0055A6B0A435A635B6B0B4020
:1040E0000193019B04B0704702210A4B0A485A6BA6
:1040F0000A435A635B6B0B400293029BF2E7202159
:10410000044B06485A6B0A435A635B6B0B4003939C
:10411000039BE7E700100240000400500014005029
:10412000F0B5234E85B00191310003930292040053
:1041300000F03CFAFFF7E0FD1E4F8500EB59002B25
:104140000ED1A82000F086FD31000090200000F084
:104150002DFA01000098FFF755FFEB59009A1A60FD
:10416000144B31005B5920001F6800F057FA05031B
:10417000ED0E29003800FFF78FFD0600052805D059
:104180002300052229003800FFF7DAFC022238005C
:104190000199FFF76FFE29003800039B029AFFF791
:1041A00091FE052E02D03800FFF7A8FC05B0F0BD47
:1041B0000469000884010020F7B5134B06001900BC
:1041C000019300F0F3F9FFF797FD104F8400E359D6
:1041D000002B0DD1A82000F03DFD01990500300015
:1041E00000F0E4F901002800FFF70CFFE3591D601F
:1041F0003B591C68002C06D02000FFF7A7FDA82122
:10420000200000F02BFDF7BD0469000884010020A8
:1042100073B5FDF7B7FF0F4C0600A3680093FDF7D9
:10422000B1FFA368050001936168FA240131A4007D
:10423000864207D001986543081A6043FCF78CFE5C
:10424000401976BD0098081A6043FCF785FE744358
:104250000019F6E710E000E010B5FDF793FF10BD80
:10426000704710B5FDF782FFFEF701F8FFF7F8FF82
:1042700010BD704780210A4B4905DA6B82B00A43B2
:10428000DA63DA6B0A4001210092009A1A6C0A4341
:104290001A641B6C0B400193019B02B07047C0462F
:1042A0000010024010B5FFF7E5FFFDF753FFFFF7E1
:1042B000E0FF00F001FD10BD10B50C22002104004C
:1042C00001F004FE0023E36010BD0000002310B5E0
:1042D00001280BD114225A43064B101DC0188168C7
:1042E000002902D09B181B69984710BD0133400874
:1042F000DBB2EDE79801002010B50120FEF79CF934
:104300000220FEF799F910BD10B50420FEF794F9CC
:104310000820FEF791F910BD70B50C241025A8B245
:10432000013CFEF789F96D00002CF8D170BD00004A
:10433000F8B505252E4F2F4C38002570FFF7BCFF30
:104340002D4E25753000FFF7B7FF230001352833C8
:104350002A481D70FFF7B0FF230029483C331D7029
:10436000FFF7AAFF23000135503326481D70603740
:10437000FFF7A2FF24483D706036FFF79DFF2348FA
:104380003570FFF799FF230021488C331D70FFF72C
:1043900093FF23001F48A0331D70FFF78DFF2300FC
:1043A0001D48B4331D70FFF787FF23001B48C83337
:1043B0001D70FFF781FF23001948DC331D70FFF7E4
:1043C0007BFF23002600F03316481D70FF36FFF7F1
:1043D00073FF15487571FFF76FFF14487576FFF787
:1043E0006BFF962312485B00E554FFF765FFF8BDAD
:1043F0009C01002098010020B0010020C401002091
:10440000D8010020EC01002000020020140200204E
:10441000280200203C0200205002002064020020FC
:10442000780200208C020020A0020020B4020020AC
:10443000C802002010B5044C143C201DFFF7A3FA5D
:10444000024B9C42F8D110BDD802002098010020F8
:10445000431C04D100207047834204D00C310B6808
:104460005A1CF9D1F6E70120F5E70000F7B5060080
:104470000C00431C00D1FEE7072502000D400F2170
:10448000334B0A40000992000840D7580195FFF7C6
:1044900015FE8268030094463A00032065467A437D
:1044A0005043C14328439860019803283FD8FCF744
:1044B00049FD3F411A02032050431E68019D0E40F2
:1044C0003043013D1860012D04D8200734D55868C9
:1044D00038435860A406A40F012C30D0022C33D0EE
:1044E000DA680A402EE06004400E84467F2801D13D
:1044F0000220E1E736070DD50F26586A0500380A75
:10450000404340434643B5432E0065466843064357
:104510005E62EDE7186A0F2605001000504346431F
:10452000B5432E006546684306431E62E0E7FEE79A
:104530000020C1E70120BFE75868B843C9E7D86841
:1045400001400A43DA60F7BDD86852000140F8E73D
:10455000A465000810B5431C07D110BD834203D1E8
:104560008968FFF783FFF8E70C310B685A1CF5D117
:10457000FEE710B5431C0AD110BD834206D14B683B
:10458000934203D18968FFF771FFF5E70C310B689F
:104590005C1CF2D1FEE70B685A1C01D1002002E03E
:1045A000834201D1486870470C31F4E7002310B50D
:1045B000421C02D0FFF7EFFF0300180010BD0023DC
:1045C00030B50C68651C01D1002004E0844204D1A0
:1045D000934201DB486830BD01330C31F1E74B6891
:1045E000002B02D10120404202E0834201D1086841
:1045F00070470C31F3E710B5002802D0FFF7EFFF4A
:1046000010BD01204042FBE703000868421C02D0B5
:10461000984201D1886870470C31F6E710B5431C09
:1046200001D0FFF7F1FF10BD030008008B4205D059
:10463000002B03D0424250414042184070470000D6
:104640000749084A4B6812681B0C1B04134380225D
:104650009201134380224B60034B12059A6070470E
:1046600000100240040FFF1F00ED00E00438704707
:104670000368234A86B093420BD18021214B090164
:104680001A6C0A431A641B6C0B400193019B06B021
:1046900070471D4A934209D102211A4BDA6B0A4333
:1046A000DA63DB6B0B400293029BF0E7174A9342FD
:1046B0000AD18021134B09021A6C0A431A641B6C3D
:1046C0000B400393039BE2E7114A93420AD18021F6
:1046D0000C4B89021A6C0A431A641B6C0B4004933E
:1046E000049BD4E70B4A9342D1D18021054BC902E8
:1046F0001A6C0A431A641B6C0B400593059BC6E7B2
:10470000002C014000100240000400400020004046
:1047100000440140004801400368134A934205D118
:10472000124A1349136C0B40136407E0114A934279
:1047300005D102210D4AD36B8B43D36370470E4AD8
:10474000934203D1094A0D49136CECE70C4A93429A
:1047500003D1064A0B49136CE5E70B4A9342EDD1AE
:10476000024A0A49136CDEE7002C014000100240A7
:10477000FFF7FFFF0004004000200040FF7FFFFF25
:1047800000440140FFFFFDFF00480140FFFFFBFF29
:104790000300421C13D00E4A904213D007D80D4A92
:1047A000904211D00C4A1320934207D0FEE70B4AE7
:1047B00090420BD00A4A16209342F7D170470E2040
:1047C0004042FBE70D20F9E71020F7E71520F5E759
:1047D000002C014000040040002000400044014043
:1047E000004801400300421C13D00E4A904213D0EF
:1047F00007D80D4A904211D00C4A1320934207D09B
:10480000FEE70B4A90420BD00A4A16209342F7D19A
:1048100070470E204042FBE70E20F9E71020F7E733
:104820001520F5E7002C0140000400400020004066
:104830000044014000480140F8B50400FFF718FFAC
:104840002068FFF7A5FF626C216CFDF7A1FC2068D2
:10485000FFF79EFFFDF7C6FC27683800FFF7C2FF91
:1048600005003800FFF794FF854209D02800626CEC
:10487000216CFDF78DFC2068FFF7B4FFFDF7B2FC5B
:10488000F8BD0130431E9841C0B2704710B50649CB
:10489000FFF7C4FE0003C00E431E032B00D9FEE742
:1048A0008000043810BDC04604690008F0B587B028
:1048B00004000191806D564902920393FFF776FE42
:1048C00054490700E06DFFF771FE53490500206E63
:1048D000FFF76CFE51490090606EFFF767FE06001F
:1048E000002F79D0E36D013301D0002D74D0236EF9
:1048F000013302D0009B002B6ED0636E013301D0D8
:10490000002E69D02368002B0CD129003800FFF756
:104910008BFE00992060FFF787FE31002060FFF7D3
:1049200083FE20602268002A56D03D4B9A4255D122
:1049300080213C4BC901186B3B4F08431863186B2F
:1049400038401863186C084318641B6C0B401B211B
:104950000493049B2300683319802D49A06DFFF751
:1049600008FE002D04D02B492268E06DFFF701FE00
:104970000027009BBB4205D02749206EFFF7EAFDC8
:104980000137FF37002E06D0802324499B00606E3C
:104990001F43FFF7DFFD220069321278234B261DEB
:1049A0009200D650236800226360019B6820A360B8
:1049B000029BE761E3600C9B22622361039B6262BE
:1049C00063610C23A36120560121FDF7E1FB300058
:1049D000002D1AD1FEF72EFE07B0F0BD144B9A42FF
:1049E000BBD180210F4B8902D86A124F0843D8628D
:1049F000D86A3840D862D86B0843D863DB6B0B4069
:104A00008E210593059B4900A4E7FEF7C5FDE3E76A
:104A1000086800080C670008B866000864660008AB
:104A20000038014000100240FFBFFFFFD802002005
:104A300000440040FFFFFDFF13B5002803D0049C95
:104A40000094FFF733FF13BD10B569300278064BB1
:104A50009200D058FEF784FF2223184022384342A8
:104A60005841C0B210BDC046D802002010B5693010
:104A70000278064B9200D058FEF772FF21231840AF
:104A8000213843425841C0B210BDC046D802002070
:104A900070B504000E00002802D10120404270BD14
:104AA000FFF7D2FF051EF8D121006A310B78693477
:104AB00033702078034B80000122C058FEF70FFEB0
:104AC0002800ECE7D802002070B504000D00002893
:104AD00018D0FFF7B9FF002814D125652500002064
:104AE00068352856FDF78AFB210069342078064B8B
:104AF00080000122C0586A31FEF7F1FD00202856DF
:104B0000FDF770FB70BDC046D802002070B50400F0
:104B10001500002817D00600416500206836305681
:104B2000FDF76CFB23007A331B88216F69342078F2
:104B3000C918054B8000C058AAB2FEF7AFFD00208F
:104B40003056FDF74FFB70BDD802002010B500288D
:104B500009D0C36D013306D169300278024B92004F
:104B6000D058FEF7CDFE10BDD802002010B50028A9
:104B700009D0C36D013306D169300278024B92002F
:104B8000D058FEF7D5FE10BDD802002010B504386D
:104B9000036D984710BD10B50438436D984710BD9C
:104BA0007FB503680122196804000D000438154020
:104BB000114211D0002200921A6800925B680093A3
:104BC000009BFFF741FF002805D1210001222000B2
:104BD0006631FEF784FD7FBD196802220E00164083
:104BE000114206D001951A6801925B680193019BFE
:104BF000E7E7196804220D001540114206D002961D
:104C00001A6802925B680293029BDAE71A6812073D
:104C1000D7D503951A6803925B680393039BD0E78B
:104C200010B51B20FDF714FB024B1868FEF7B6FD0C
:104C300010BDC046D80200201C2010B5FDF708FBAF
:104C4000034B5868002801D0FEF7A8FD10BDC046F0
:104C5000D802002010B500F09BFF10BD10B500F089
:104C6000A1FF10BD03000A4910B50868C318EFF38F
:104C70000882934205D90C220120064B40421A605B
:104C800010BD054A054C121B9342F4D20B60F7E7A6
:104C9000280000204C050020001000200004000027
:104CA000FEE7000016220120014B40421A607047C7
:104CB0004C0500200120704700B591B0282200214A
:104CC00006A801F003F90021102201A801F0FEF866
:104CD000022380220593FE330A930E4B12021B68B7
:104CE00005A8DB04DB0C13430C9301230E93FDF7A3
:104CF00001FD011E00D0FEE70723029003900490FF
:104D000001A80193FDF724FF002800D0FEE711B0B1
:104D100000BDC046100FFF1F10B5FBF72AFA10BDEB
:104D200010B5FBF726FA10BD10B5FBF722FA10BD3F
:104D30000200FE32D38950894033181A3F231840AD
:104D400070470300FE33DA895B899A4203D0FC3056
:104D50004268D05C704701204042FBE7FE30037B95
:104D6000008AC0B2834202D3C01A3F307047C01AD3
:104D70000138FBE713B56B460268D97107335468F5
:104D800019000122A04716BD37B56B46DD1D29006D
:104D90000400FFF77DFE00280FD122003F2178326A
:104DA000138801330B402100743109888B4204D0F1
:104DB0001188E06E2D784554138037BD030010B57F
:104DC0007A331A88C16F52183F210A401A800200B4
:104DD000763212881C880021A24217D01C884032EB
:104DE00019880B4B121B89B21A4004D54023013A93
:104DF0005B421A43013240235B1A9A4200D91A00DF
:104E00000449C267FFF782FE01214942080010BD34
:104E10003F000080BD4D0008F0B50400036885B078
:104E20009B6801910392984723004025FE339B899C
:104E30000700ED1A012323742300F0331B680133AC
:104E40000AD12300FF335A7D002A05D0002220001A
:104E50005A759430FFF77AFE236820009B689847C4
:104E60000028F9D0039EB54229D3BE4227D823009B
:104E70002700FE3302939B89FC37B8689A19C01843
:104E8000402A34D83200019901F0C8F83500029B5D
:104E90003F229B899B1926001340029A94363000CA
:104EA0009381FFF7E3FD002806D1FC342A0030008F
:104EB00015496561FFF72AFE039805B0F0BDBD42B4
:104EC00000D93D0023682A005B68019920009847BB
:104ED000019B20005B1901932368761B9B68984710
:104EE0002300FE339D89402307005D1BBBE740255F
:104EF000ED1A2A00019901F091F8019BB868721B24
:104F0000591901F08BF8C2E7BD4D0008037C002B56
:104F100004D0FE308289038A9A42FCD17047000097
:104F2000F7B501930223150004000E0000220127AB
:104F300000931B492800FFF742FB1A490B689C4667
:104F4000194BC3185A1E93413A005B009A40130054
:104F5000624613421ED11A43230094330A6018603C
:104F6000B54201D1012676422300F033019A1E603A
:104F70005A60089A043BDA6022001D60FC3221006E
:104F8000DB3B53600023FE315134CB819460D3600E
:104F90000B82F7BD009B3A00012BE1D00097C8E7D8
:104FA00008680008FC03002000C8FEBFCBB210B5A3
:104FB000262B09D8E0220F4C9B00D2000A40195939
:104FC0001143F030016010BDC0220A40C02A0ED14A
:104FD000C92B0CD83F23084C0B409B001B59E024E5
:104FE000044A9B009B58E40021401943E9E7012152
:104FF0004942E6E7F46A0008CC6A0008CBB210B573
:10500000262B09D8E0220F4C9B00D2000A401959E8
:105010001143EC30016010BDC0220A40C02A0ED1FD
:10502000C92B0CD83F23084C0B409B001B59E02494
:10503000044A9B009B58E40021401943E9E7012101
:105040004942E6E7F46A0008CC6A00080023F0B59C
:105050004360FA239B008360204B0600036001231A
:10506000F0365B4233601E4B85B004000D000392A6
:1050700098421AD1C3212000FFF798FFC2212000D7
:10508000FFF7BCFF0123039A5B42012A00D1336082
:10509000220000930123EC322000126831685B4249
:1050A000FFF73EFF200005B0F0BD0E4A0E4F92689C
:1050B0000E4B92003900D058FFF778FA8542D9D0CC
:1050C0000B492800FFF797FA390030602800FFF7F6
:1050D00092FA2300EC331860D4E7C0469C6B0008BA
:1050E000E0020020CC6A000808680008F46A0008A2
:1050F0000C6700080300F0331B6810B5040001338F
:105100000DD10368DB6898472300FF335A7D002ADE
:1051100005D1200001325A759430FFF727FD10BDEC
:105120000300FC3373B55A76D96107231340023B61
:10513000DBB2140005000022042B01D8174AD25C10
:1051400030232340302B07D1C0230132DB00082A53
:105150000AD0092A1AD0FEE7202023000340044287
:1051600019D080230132F1E700222E002407E40F3A
:105170009436640330000094FFF75EFC2800FFF7CC
:10518000B9FF30000649FFF79FFC73BD8022520132
:10519000EBE71A00E9E7082AFBD0DCE78C6B000894
:1051A000894D000810B50400FFF7A4FF2200FE326D
:1051B000D1895389994207D0FC346168C85C3F218A
:1051C00001330B40538110BD01204042FBE700003A
:1051D00010B5002202480349FFF738FF10BDC04652
:1051E000E00200200038014070B505000C00081EE8
:1051F00007D0FCF789F82B680200210028005B68C3
:10520000984770BD10B503688A685B68096898475D
:1052100010BD10B5FFF7E8FF10BD10B503681B689F
:10522000984710BD10B50249FFF7DEFF10BDC0461C
:105230005965000870B50400FFF7D6FF050020008F
:10524000FFF7F0FF401970BD70B50500FFF7DAFFFA
:1052500004002800FFF7E6FF201870BD10B5FFF727
:10526000E9FF10BDF0B58BB06B461400002205338A
:105270000600DA77012C00D80A2409AD0F002100BE
:105280003800FBF769FE03006343FB1ADBB21A0028
:1052900037320100D2B2092B01D83033DAB2013DE6
:1052A0002A70BC42EAD929003000FFF79DFF0BB0FD
:1052B000F0BDF8B507000D00161E04D10368C9B291
:1052C0001B689847F8BD0A2A0CD100290BDA2D215A
:1052D000FFF7A3FF3200040069423800FFF7C2FF66
:1052E0002018EFE7D2B229003800FFF7BBFFE9E74B
:1052F00010B5FFF7DEFF10BD70B50400FFF7D9FF52
:1053000005002000FFF78EFF401970BD70B5050045
:10531000FFF7CFFF04002800FFF784FF201870BDBF
:1053200010B5002A04D10368C9B21B68984710BDA4
:10533000D2B2FFF797FFFAE710B5FFF7F1FF10BD04
:1053400010B5040000F07EFBE060236820005B697C
:105350009847002808DA00F075FBE368C01AA368D4
:105360009842F2D30120404210BDF8B506000F006C
:1053700015000024AC4201D12000F8BD3000FFF739
:10538000DFFF0028F8DB38550134F3E7F7B50F00ED
:1053900016001D001C1E01900BD000240198FFF781
:1053A000CFFF002805DBB84203D030550134A542B9
:1053B000F4D12000FEBD000070B50D0009490400C5
:1053C000160000F058F82800FFF7BAFF002801DBAC
:1053D000864201D1200070BDC1B2200000F0C5F8A6
:1053E000F1E7C0465B65000810B50400006800F0F6
:1053F000D9FB200010BD10B504000068002801D0C2
:1054000000F0D0FB00232360A360636010BD70B583
:1054100004000D000068013100F080FC031E01D083
:10542000012028C470BD036810B50400002B02D011
:1054300043688B4209D22000FFF7E9FF002805D01E
:10544000A368002B01D122681370012010BD70B534
:105450000E00110004001500FFF7E5FF002804D13D
:105460002000FFF7C8FF200070BD31002068A56054
:1054700000F0CCFDF7E7002370B504000D000360D9
:1054800043608360994207D00800FBF73DFF290085
:1054900002002000FFF7DBFF200070BD10B50B00FD
:1054A0000400884205D00968002904D09A68FFF7F3
:1054B000CEFF200010BDFFF79EFFFAE7002310B5D6
:1054C0000400036043608360FFF7E8FF200010BD25
:1054D00070B504000D1E09D00800FBF715FF290068
:1054E00002002000FFF7B3FF200070BDFFF783FF2D
:1054F000FAE710B5002304008AB023606360A3605C
:10550000080001A900F041F9200001A9FFF7E0FF20
:1055100020000AB010BD10B5002304008AB023603B
:105520006360A360080001A900F0EDF8200001A964
:10553000FFF7CEFF20000AB010BD70B504000E1EAC
:10554000856801D1002070BD002A0CD0AD1829005B
:10555000FFF769FF0028F5D02068A3683100C01864
:1055600000F054FDA5600120EDE707B56B46197109
:105570006A46002301A953710122FFF7DEFF0EBD29
:1055800010B58A6809680400FFF7D7FF002802D128
:105590002000FFF730FF200010BD836810B5002BFE
:1055A00007D10120002903D0087843425841C0B2F6
:1055B00010BD0068002901D10078F6E7FBF79AFEDC
:1055C000F3E770B5856814008A680300AD1A0020FF
:1055D000A5420BD31B68181E08D00968081E05D009
:1055E000181900F07BFC43425841C0B270BD10B5A1
:1055F0008A6884680023944203D31A00FFF7E1FF0E
:105600000300180010BD0000F7B50F0016001D00C4
:1056100001909A4201D815001E000C490198FFF72D
:105620002AFFBC68AC420ED9B44200D934003B68B2
:1056300001981E5D1A190023137039684919FFF784
:1056400047FF3B681E550198FEBDC0465B650008DC
:10565000F8B507680500002F03D084683E00002CD1
:1056600001D1F8BD0136307800F028FC0028F9D1CE
:10567000013C3C19207800F021FC00280DD10134B8
:10568000A21BAA60B74203D23100380000F0C6FC6A
:1056900000212A68AB68D154E3E7A642EFD8013C69
:1056A000E8E70368002010B5834202D0180000F03C
:1056B00069FA10BD0D4885460D480E490E4A002373
:1056C00002E0D458C4500433C4188C42F9D30B4AB6
:1056D0000B4C002301E013600432A242FBD3FEF71F
:1056E000AFFF00F06DFC00F058F8FEE7001000205E
:1056F0000000002088000020DC6C000888000020EA
:1057000054050020FEE7F0B50C0017008DB000290D
:1057100021D0931E222B36D80A2A1FD100281DDA49
:105720000123404203AE35000193AC46002817D157
:10573000AE4215D0019B2200002B02D02D23621C0B
:10574000237011002B00B34218D800210B00B44580
:1057500000D3AB1BD15420000DB0F0BD0023E1E716
:105760003900FBF77FFCCAB213005733DBB20929BB
:1057700001D83032D3B22B700135D6E7013B18780F
:1057800008700131DFE70024E5E710B5FFF7BBFF44
:1057900010BD10B500F07CF910BD10B500E000BFE1
:1057A000FBF748FEFCF786FA00F062F9FAE791424F
:1057B00008D008D90123891A8B40984209D30130B7
:1057C000C840013870470028FCD00130521A904080
:1057D000F7E70020F6E70000F7B5C3B20500274A57
:1057E0000191262B0BD9C0220240C02A33D1C92BEC
:1057F00031D83F23224903409B00204A5B58E024D4
:105800009B009B58E4002C401C43631C23D02000C9
:105810001C49FEF71DFE1C4F061E1DD00F2123093B
:105820000B401A489B001D5821402E000122CE40FB
:10583000164202D18A402A431A50154B39681D6816
:1058400001982A00FFF7B3FF1249020009682000FF
:10585000EBB2FEF765FCF7BD0121280000F01CF853
:10586000396808220198FFF7A2FF31007F2800D98C
:105870000121280000F06CF8EDE7C046F46A00084A
:10588000CC6A0008046900083400002000040020ED
:10589000300000202C000020F7B5C3B204000191B5
:1058A000262B29D8E02226499B005C58D2000240D2
:1058B0001443631C37D00F2625093540214FAD0016
:1058C000EB592640F340DB070DD520001E49FEF7BB
:1058D000BFFD002802D02000FEF76EFC0122B2407E
:1058E0007B5993437B51019B052B27D81800FBF76D
:1058F00029FB16211B1D1F23C0220240C02A12D1E2
:10590000C92B10D83F23114903409B005B58E0216D
:105910000B4A9B009B58C9000C401C43C9E700215F
:105920002000FEF7A3FDF7BD1021F9E72021F7E7DE
:105930000321F5E70121F3E70921F1E7FEE7C0467E
:10594000F46A00080004002004690008CC6A00081A
:10595000C3B210B5262B17D8E022174C9B00D200FB
:10596000024018591043030600221B0F022B02D8D5
:10597000124A9B009A580F24114B20408000C358B4
:10598000002917D0936110BDC0220240C02A0ED159
:10599000C92B0CD83F230B4C03409B001B59E02420
:1059A000054A9B009B58E40020401843DBE7012098
:1059B0004042D8E79362E6E7F46A00081800002046
:1059C000A4650008CC6A0008C3B2262B0ED8E022DA
:1059D00018499B00D2000240585810430F21030978
:1059E0000B40022B18D900231B69FFDEC0220240A6
:1059F000C02A0ED1C92B0CD83F230F4903409B006E
:105A00005B58E0210B4A9B009B58C9000840184393
:105A1000E4E701204042E1E7084A9B009A58084029
:105A2000074B8000C35810691840C01A43425841C0
:105A30007047C046F46A0008CC6A000818000020CD
:105A4000A465000810B5FEF707FC10BD10B5FEF701
:105A5000DFFB10BD70B5041E09D0FEF7FDFB05008D
:105A600000F01AF8FEF7F8FB401BA042F8D370BD17
:105A7000054B10B5002B06D00448FFF759F9002854
:105A800001D000E000BF10BD00000000E0020020D7
:105A900010B5FEF707FC10BD704700004102420040
:105AA000C30F490A0020120E7E2A03DD9D2A02DD63
:105AB000094A98187047802000040143952A07DCA2
:105AC0009620821AD1404842002BF3D10800F1E71A
:105AD000963A9140F7E7C046FFFFFF7F70B5002878
